{
  "_format": "hh-sol-artifact-1",
  "contractName": "BlockchainHQ",
  "sourceName": "contracts/contract.sol",
  "abi": [
    {
      "inputs": [],
      "stateMutability": "nonpayable",
      "type": "constructor"
    },
    {
      "anonymous": false,
      "inputs": [
        {
          "indexed": false,
          "internalType": "uint256",
          "name": "consultationId",
          "type": "uint256"
        },
        {
          "indexed": false,
          "internalType": "address",
          "name": "user",
          "type": "address"
        },
        {
          "indexed": false,
          "internalType": "address",
          "name": "expert",
          "type": "address"
        },
        {
          "indexed": false,
          "internalType": "uint256",
          "name": "amountPaid",
          "type": "uint256"
        },
        {
          "indexed": false,
          "internalType": "uint256",
          "name": "endTime",
          "type": "uint256"
        }
      ],
      "name": "ConsultationStarted",
      "type": "event"
    },
    {
      "anonymous": false,
      "inputs": [
        {
          "indexed": false,
          "internalType": "address",
          "name": "expert",
          "type": "address"
        },
        {
          "indexed": false,
          "internalType": "uint256",
          "name": "fee",
          "type": "uint256"
        },
        {
          "indexed": false,
          "internalType": "enum BlockchainHQ.FeeType",
          "name": "feeType",
          "type": "uint8"
        }
      ],
      "name": "ExpertRegistered",
      "type": "event"
    },
    {
      "anonymous": false,
      "inputs": [
        {
          "indexed": false,
          "internalType": "uint256",
          "name": "questionId",
          "type": "uint256"
        },
        {
          "indexed": false,
          "internalType": "address",
          "name": "expert",
          "type": "address"
        },
        {
          "indexed": false,
          "internalType": "string",
          "name": "answer",
          "type": "string"
        }
      ],
      "name": "QuestionAnswered",
      "type": "event"
    },
    {
      "anonymous": false,
      "inputs": [
        {
          "indexed": false,
          "internalType": "uint256",
          "name": "questionId",
          "type": "uint256"
        },
        {
          "indexed": false,
          "internalType": "address",
          "name": "asker",
          "type": "address"
        },
        {
          "indexed": false,
          "internalType": "uint256",
          "name": "consultationId",
          "type": "uint256"
        }
      ],
      "name": "QuestionAsked",
      "type": "event"
    },
    {
      "anonymous": false,
      "inputs": [
        {
          "indexed": false,
          "internalType": "address",
          "name": "user",
          "type": "address"
        },
        {
          "indexed": false,
          "internalType": "string",
          "name": "name",
          "type": "string"
        },
        {
          "indexed": false,
          "internalType": "string",
          "name": "userAddress",
          "type": "string"
        }
      ],
      "name": "UserRegistered",
      "type": "event"
    },
    {
      "anonymous": false,
      "inputs": [
        {
          "indexed": false,
          "internalType": "address",
          "name": "expert",
          "type": "address"
        },
        {
          "indexed": false,
          "internalType": "uint256",
          "name": "amount",
          "type": "uint256"
        }
      ],
      "name": "Withdrawal",
      "type": "event"
    },
    {
      "inputs": [
        {
          "internalType": "uint256",
          "name": "questionId",
          "type": "uint256"
        },
        {
          "internalType": "string",
          "name": "answerText",
          "type": "string"
        }
      ],
      "name": "answerQuestion",
      "outputs": [],
      "stateMutability": "nonpayable",
      "type": "function"
    },
    {
      "inputs": [
        {
          "internalType": "uint256",
          "name": "consultationId",
          "type": "uint256"
        },
        {
          "internalType": "string",
          "name": "questionText",
          "type": "string"
        }
      ],
      "name": "askQuestion",
      "outputs": [],
      "stateMutability": "nonpayable",
      "type": "function"
    },
    {
      "inputs": [
        {
          "internalType": "address",
          "name": "expert",
          "type": "address"
        },
        {
          "internalType": "uint256",
          "name": "duration",
          "type": "uint256"
        }
      ],
      "name": "calculateFee",
      "outputs": [
        {
          "internalType": "uint256",
          "name": "",
          "type": "uint256"
        }
      ],
      "stateMutability": "view",
      "type": "function"
    },
    {
      "inputs": [],
      "name": "consultationCount",
      "outputs": [
        {
          "internalType": "uint256",
          "name": "",
          "type": "uint256"
        }
      ],
      "stateMutability": "view",
      "type": "function"
    },
    {
      "inputs": [
        {
          "internalType": "uint256",
          "name": "",
          "type": "uint256"
        }
      ],
      "name": "consultations",
      "outputs": [
        {
          "internalType": "address",
          "name": "user",
          "type": "address"
        },
        {
          "internalType": "address",
          "name": "expert",
          "type": "address"
        },
        {
          "internalType": "uint256",
          "name": "startTime",
          "type": "uint256"
        },
        {
          "internalType": "uint256",
          "name": "endTime",
          "type": "uint256"
        },
        {
          "internalType": "bool",
          "name": "isActive",
          "type": "bool"
        }
      ],
      "stateMutability": "view",
      "type": "function"
    },
    {
      "inputs": [
        {
          "internalType": "address",
          "name": "",
          "type": "address"
        }
      ],
      "name": "experts",
      "outputs": [
        {
          "internalType": "bool",
          "name": "isRegistered",
          "type": "bool"
        },
        {
          "internalType": "uint256",
          "name": "fee",
          "type": "uint256"
        },
        {
          "internalType": "enum BlockchainHQ.FeeType",
          "name": "feeType",
          "type": "uint8"
        },
        {
          "internalType": "uint256",
          "name": "balance",
          "type": "uint256"
        }
      ],
      "stateMutability": "view",
      "type": "function"
    },
    {
      "inputs": [
        {
          "internalType": "uint256",
          "name": "questionId",
          "type": "uint256"
        }
      ],
      "name": "getQuestion",
      "outputs": [
        {
          "components": [
            {
              "internalType": "address",
              "name": "asker",
              "type": "address"
            },
            {
              "internalType": "string",
              "name": "questionText",
              "type": "string"
            },
            {
              "internalType": "uint256",
              "name": "consultationId",
              "type": "uint256"
            },
            {
              "internalType": "bool",
              "name": "answered",
              "type": "bool"
            },
            {
              "internalType": "string",
              "name": "answerText",
              "type": "string"
            }
          ],
          "internalType": "struct BlockchainHQ.Question",
          "name": "",
          "type": "tuple"
        }
      ],
      "stateMutability": "view",
      "type": "function"
    },
    {
      "inputs": [],
      "name": "owner",
      "outputs": [
        {
          "internalType": "address",
          "name": "",
          "type": "address"
        }
      ],
      "stateMutability": "view",
      "type": "function"
    },
    {
      "inputs": [],
      "name": "platformFeePercentage",
      "outputs": [
        {
          "internalType": "uint256",
          "name": "",
          "type": "uint256"
        }
      ],
      "stateMutability": "view",
      "type": "function"
    },
    {
      "inputs": [],
      "name": "questionCount",
      "outputs": [
        {
          "internalType": "uint256",
          "name": "",
          "type": "uint256"
        }
      ],
      "stateMutability": "view",
      "type": "function"
    },
    {
      "inputs": [
        {
          "internalType": "uint256",
          "name": "",
          "type": "uint256"
        }
      ],
      "name": "questions",
      "outputs": [
        {
          "internalType": "address",
          "name": "asker",
          "type": "address"
        },
        {
          "internalType": "string",
          "name": "questionText",
          "type": "string"
        },
        {
          "internalType": "uint256",
          "name": "consultationId",
          "type": "uint256"
        },
        {
          "internalType": "bool",
          "name": "answered",
          "type": "bool"
        },
        {
          "internalType": "string",
          "name": "answerText",
          "type": "string"
        }
      ],
      "stateMutability": "view",
      "type": "function"
    },
    {
      "inputs": [
        {
          "internalType": "uint256",
          "name": "fee",
          "type": "uint256"
        },
        {
          "internalType": "enum BlockchainHQ.FeeType",
          "name": "feeType",
          "type": "uint8"
        }
      ],
      "name": "registerExpert",
      "outputs": [],
      "stateMutability": "nonpayable",
      "type": "function"
    },
    {
      "inputs": [
        {
          "internalType": "string",
          "name": "name",
          "type": "string"
        },
        {
          "internalType": "string",
          "name": "userAddress",
          "type": "string"
        }
      ],
      "name": "registerUser",
      "outputs": [],
      "stateMutability": "nonpayable",
      "type": "function"
    },
    {
      "inputs": [
        {
          "internalType": "uint256",
          "name": "newFeePercentage",
          "type": "uint256"
        }
      ],
      "name": "setPlatformFeePercentage",
      "outputs": [],
      "stateMutability": "nonpayable",
      "type": "function"
    },
    {
      "inputs": [
        {
          "internalType": "address",
          "name": "expert",
          "type": "address"
        },
        {
          "internalType": "uint256",
          "name": "duration",
          "type": "uint256"
        }
      ],
      "name": "startConsultation",
      "outputs": [],
      "stateMutability": "payable",
      "type": "function"
    },
    {
      "inputs": [
        {
          "internalType": "address",
          "name": "",
          "type": "address"
        }
      ],
      "name": "users",
      "outputs": [
        {
          "internalType": "string",
          "name": "name",
          "type": "string"
        },
        {
          "internalType": "string",
          "name": "userAddress",
          "type": "string"
        },
        {
          "internalType": "bool",
          "name": "isRegistered",
          "type": "bool"
        }
      ],
      "stateMutability": "view",
      "type": "function"
    },
    {
      "inputs": [],
      "name": "withdrawEarnings",
      "outputs": [],
      "stateMutability": "nonpayable",
      "type": "function"
    }
  ],
  "bytecode": "0x60806040526002600155348015601457600080fd5b50336000806101000a81548173ffffffffffffffffffffffffffffffffffffffff021916908373ffffffffffffffffffffffffffffffffffffffff160217905550612e08806100646000396000f3fe6080604052600436106100fe5760003560e01c80638da5cb5b11610095578063c0f07fde11610064578063c0f07fde14610352578063cdd78cfc1461037d578063d24a3767146103a8578063db88176f146103d1578063f7dd55a61461040e576100fe565b80638da5cb5b146102a8578063a87430ba146102d3578063b73c6ce914610312578063b7c5e4ed14610329576100fe565b806331b1b978116100d157806331b1b978146101d8578063447e52a0146102195780638333903e146102425780638b28ab1e1461026b576100fe565b8063097b39ac1461010357806312572f5a146101445780631468aa2c146101845780631d2e4afd146101af575b600080fd5b34801561010f57600080fd5b5061012a600480360381019061012591906119ea565b61042a565b60405161013b959493929190611a82565b60405180910390f35b34801561015057600080fd5b5061016b60048036038101906101669190611b01565b6104ad565b60405161017b9493929190611ba5565b60405180910390f35b34801561019057600080fd5b506101996104f7565b6040516101a69190611bea565b60405180910390f35b3480156101bb57600080fd5b506101d660048036038101906101d19190611d4b565b6104fd565b005b3480156101e457600080fd5b506101ff60048036038101906101fa91906119ea565b610678565b604051610210959493929190611e42565b60405180910390f35b34801561022557600080fd5b50610240600480360381019061023b9190611ea3565b6107eb565b005b34801561024e57600080fd5b50610269600480360381019061026491906119ea565b6109b5565b005b34801561027757600080fd5b50610292600480360381019061028d9190611eff565b610a91565b60405161029f9190611bea565b60405180910390f35b3480156102b457600080fd5b506102bd610c6a565b6040516102ca9190611f3f565b60405180910390f35b3480156102df57600080fd5b506102fa60048036038101906102f59190611b01565b610c8e565b60405161030993929190611f5a565b60405180910390f35b34801561031e57600080fd5b50610327610dd5565b005b34801561033557600080fd5b50610350600480360381019061034b9190611fc4565b610f47565b005b34801561035e57600080fd5b50610367611136565b6040516103749190611bea565b60405180910390f35b34801561038957600080fd5b5061039261113c565b60405161039f9190611bea565b60405180910390f35b3480156103b457600080fd5b506103cf60048036038101906103ca9190611ea3565b611142565b005b3480156103dd57600080fd5b506103f860048036038101906103f391906119ea565b611390565b60405161040591906120f8565b60405180910390f35b61042860048036038101906104239190611eff565b61155c565b005b60056020528060005260406000206000915090508060000160009054906101000a900473ffffffffffffffffffffffffffffffffffffffff16908060010160009054906101000a900473ffffffffffffffffffffffffffffffffffffffff16908060020154908060030154908060040160009054906101000a900460ff16905085565b60036020528060005260406000206000915090508060000160009054906101000a900460ff16908060010154908060020160009054906101000a900460ff16908060030154905084565b60065481565b600260003373ffffffffffffffffffffffffffffffffffffffff1673ffffffffffffffffffffffffffffffffffffffff16815260200190815260200160002060020160009054906101000a900460ff161561058d576040517f08c379a000000000000000000000000000000000000000000000000000000000815260040161058490612166565b60405180910390fd5b604051806060016040528083815260200182815260200160011515815250600260003373ffffffffffffffffffffffffffffffffffffffff1673ffffffffffffffffffffffffffffffffffffffff16815260200190815260200160002060008201518160000190816105ff9190612392565b5060208201518160010190816106159190612392565b5060408201518160020160006101000a81548160ff0219169083151502179055509050507f92822564bab8864c3a47b34e8d23fbce5c46234eb5da261f94087b995ac0f33b33838360405161066c93929190612464565b60405180910390a15050565b60046020528060005260406000206000915090508060000160009054906101000a900473ffffffffffffffffffffffffffffffffffffffff16908060010180546106c1906121b5565b80601f01602080910402602001604051908101604052809291908181526020018280546106ed906121b5565b801561073a5780601f1061070f5761010080835404028352916020019161073a565b820191906000526020600020905b81548152906001019060200180831161071d57829003601f168201915b5050505050908060020154908060030160009054906101000a900460ff1690806004018054610768906121b5565b80601f0160208091040260200160405190810160405280929190818152602001828054610794906121b5565b80156107e15780601f106107b6576101008083540402835291602001916107e1565b820191906000526020600020905b8154815290600101906020018083116107c457829003601f168201915b5050505050905085565b6000600460008481526020019081526020016000209050600060056000836002015481526020019081526020016000209050600360003373ffffffffffffffffffffffffffffffffffffffff1673ffffffffffffffffffffffffffffffffffffffff16815260200190815260200160002060000160009054906101000a900460ff166108ac576040517f08c379a00000000000000000000000000000000000000000000000000000000081526004016108a39061251b565b60405180910390fd5b80600301544211156108f3576040517f08c379a00000000000000000000000000000000000000000000000000000000081526004016108ea90612587565b60405180910390fd5b8160030160009054906101000a900460ff1615610945576040517f08c379a000000000000000000000000000000000000000000000000000000000815260040161093c906125f3565b60405180910390fd5b60018260030160006101000a81548160ff021916908315150217905550828260040190816109739190612392565b507f7fdf1d7cd44bfbd332429c81d0a5261ffd2b9f35505a29b77d93099edd2933dc8433856040516109a793929190612613565b60405180910390a150505050565b60008054906101000a900473ffffffffffffffffffffffffffffffffffffffff1673ffffffffffffffffffffffffffffffffffffffff163373ffffffffffffffffffffffffffffffffffffffff1614610a43576040517f08c379a0000000000000000000000000000000000000000000000000000000008152600401610a3a906126c3565b60405180910390fd5b6064811115610a87576040517f08c379a0000000000000000000000000000000000000000000000000000000008152600401610a7e90612755565b60405180910390fd5b8060018190555050565b600080600360008573ffffffffffffffffffffffffffffffffffffffff1673ffffffffffffffffffffffffffffffffffffffff168152602001908152602001600020905060006003811115610ae957610ae8611b2e565b5b8160020160009054906101000a900460ff166003811115610b0d57610b0c611b2e565b5b03610b3757806001015461070884610b2591906127d3565b610b2f9190612804565b915050610c64565b60016003811115610b4b57610b4a611b2e565b5b8160020160009054906101000a900460ff166003811115610b6f57610b6e611b2e565b5b03610b99578060010154610e1084610b8791906127d3565b610b919190612804565b915050610c64565b60026003811115610bad57610bac611b2e565b5b8160020160009054906101000a900460ff166003811115610bd157610bd0611b2e565b5b03610bfc5780600101546201518084610bea91906127d3565b610bf49190612804565b915050610c64565b600380811115610c0f57610c0e611b2e565b5b8160020160009054906101000a900460ff166003811115610c3357610c32611b2e565b5b03610c5e57806001015462093a8084610c4c91906127d3565b610c569190612804565b915050610c64565b60009150505b92915050565b60008054906101000a900473ffffffffffffffffffffffffffffffffffffffff1681565b6002602052806000526040600020600091509050806000018054610cb1906121b5565b80601f0160208091040260200160405190810160405280929190818152602001828054610cdd906121b5565b8015610d2a5780601f10610cff57610100808354040283529160200191610d2a565b820191906000526020600020905b815481529060010190602001808311610d0d57829003601f168201915b505050505090806001018054610d3f906121b5565b80601f0160208091040260200160405190810160405280929190818152602001828054610d6b906121b5565b8015610db85780601f10610d8d57610100808354040283529160200191610db8565b820191906000526020600020905b815481529060010190602001808311610d9b57829003601f168201915b5050505050908060020160009054906101000a900460ff16905083565b6000600360003373ffffffffffffffffffffffffffffffffffffffff1673ffffffffffffffffffffffffffffffffffffffff16815260200190815260200160002090508060000160009054906101000a900460ff16610e69576040517f08c379a0000000000000000000000000000000000000000000000000000000008152600401610e60906128b8565b60405180910390fd5b6000816003015411610eb0576040517f08c379a0000000000000000000000000000000000000000000000000000000008152600401610ea790612924565b60405180910390fd5b600081600301549050600082600301819055503373ffffffffffffffffffffffffffffffffffffffff166108fc829081150290604051600060405180830381858888f19350505050158015610f09573d6000803e3d6000fd5b507f7fcf532c15f0a6db0bd6d0e038bea71d30d808c7d98cb3bf7268a95bf5081b653382604051610f3b929190612944565b60405180910390a15050565b600360003373ffffffffffffffffffffffffffffffffffffffff1673ffffffffffffffffffffffffffffffffffffffff16815260200190815260200160002060000160009054906101000a900460ff1615610fd7576040517f08c379a0000000000000000000000000000000000000000000000000000000008152600401610fce906129b9565b60405180910390fd5b6000821161101a576040517f08c379a000000000000000000000000000000000000000000000000000000000815260040161101190612a25565b60405180910390fd5b604051806080016040528060011515815260200183815260200182600381111561104757611046611b2e565b5b81526020016000815250600360003373ffffffffffffffffffffffffffffffffffffffff1673ffffffffffffffffffffffffffffffffffffffff16815260200190815260200160002060008201518160000160006101000a81548160ff0219169083151502179055506020820151816001015560408201518160020160006101000a81548160ff021916908360038111156110e5576110e4611b2e565b5b0217905550606082015181600301559050507faf92d49cc91437cc4ab34730c3d757db39f708eaeec01ded13efb5a85e97f17233838360405161112a93929190612a45565b60405180910390a15050565b60075481565b60015481565b60006005600084815260200190815260200160002090503373ffffffffffffffffffffffffffffffffffffffff168160000160009054906101000a900473ffffffffffffffffffffffffffffffffffffffff1673ffffffffffffffffffffffffffffffffffffffff16146111eb576040517f08c379a00000000000000000000000000000000000000000000000000000000081526004016111e290612ac8565b60405180910390fd5b8060030154421115611232576040517f08c379a000000000000000000000000000000000000000000000000000000000815260040161122990612b34565b60405180910390fd5b6040518060a001604052803373ffffffffffffffffffffffffffffffffffffffff1681526020018381526020018481526020016000151581526020016040518060200160405280600081525081525060046000600654815260200190815260200160002060008201518160000160006101000a81548173ffffffffffffffffffffffffffffffffffffffff021916908373ffffffffffffffffffffffffffffffffffffffff16021790555060208201518160010190816112f29190612392565b506040820151816002015560608201518160030160006101000a81548160ff02191690831515021790555060808201518160040190816113329190612392565b509050507fcb60cf50965453b64ab85ef79bed8aaae405934181b0456036bb9eaf6dd58dd8600654338560405161136b93929190612b54565b60405180910390a16006600081548092919061138690612b8b565b9190505550505050565b611398611959565b600460008381526020019081526020016000206040518060a00160405290816000820160009054906101000a900473ffffffffffffffffffffffffffffffffffffffff1673ffffffffffffffffffffffffffffffffffffffff1673ffffffffffffffffffffffffffffffffffffffff16815260200160018201805461141c906121b5565b80601f0160208091040260200160405190810160405280929190818152602001828054611448906121b5565b80156114955780601f1061146a57610100808354040283529160200191611495565b820191906000526020600020905b81548152906001019060200180831161147857829003601f168201915b50505050508152602001600282015481526020016003820160009054906101000a900460ff161515151581526020016004820180546114d3906121b5565b80601f01602080910402602001604051908101604052809291908181526020018280546114ff906121b5565b801561154c5780601f106115215761010080835404028352916020019161154c565b820191906000526020600020905b81548152906001019060200180831161152f57829003601f168201915b5050505050815250509050919050565b600260003373ffffffffffffffffffffffffffffffffffffffff1673ffffffffffffffffffffffffffffffffffffffff16815260200190815260200160002060020160009054906101000a900460ff166115eb576040517f08c379a00000000000000000000000000000000000000000000000000000000081526004016115e290612c1f565b60405180910390fd5b600360008373ffffffffffffffffffffffffffffffffffffffff1673ffffffffffffffffffffffffffffffffffffffff16815260200190815260200160002060000160009054906101000a900460ff1661167a576040517f08c379a000000000000000000000000000000000000000000000000000000000815260040161167190612c8b565b60405180910390fd5b60006116868383610a91565b90508034146116ca576040517f08c379a00000000000000000000000000000000000000000000000000000000081526004016116c190612cf7565b60405180910390fd5b60006064600154346116dc9190612804565b6116e691906127d3565b9050600081346116f69190612d17565b905080600360008773ffffffffffffffffffffffffffffffffffffffff1673ffffffffffffffffffffffffffffffffffffffff168152602001908152602001600020600301600082825461174a9190612d4b565b925050819055506000844261175f9190612d4b565b90506040518060a001604052803373ffffffffffffffffffffffffffffffffffffffff1681526020018773ffffffffffffffffffffffffffffffffffffffff1681526020014281526020018281526020016001151581525060056000600754815260200190815260200160002060008201518160000160006101000a81548173ffffffffffffffffffffffffffffffffffffffff021916908373ffffffffffffffffffffffffffffffffffffffff16021790555060208201518160010160006101000a81548173ffffffffffffffffffffffffffffffffffffffff021916908373ffffffffffffffffffffffffffffffffffffffff160217905550604082015181600201556060820151816003015560808201518160040160006101000a81548160ff02191690831515021790555090505060008054906101000a900473ffffffffffffffffffffffffffffffffffffffff1673ffffffffffffffffffffffffffffffffffffffff166108fc849081150290604051600060405180830381858888f193505050501580156118f7573d6000803e3d6000fd5b507fe753ff4fbc8db8a24fe1cbb9a9c8b443e4d4475faeb8b6772ad6b2e866cc648960075433883485604051611931959493929190612d7f565b60405180910390a16007600081548092919061194c90612b8b565b9190505550505050505050565b6040518060a00160405280600073ffffffffffffffffffffffffffffffffffffffff1681526020016060815260200160008152602001600015158152602001606081525090565b6000604051905090565b600080fd5b600080fd5b6000819050919050565b6119c7816119b4565b81146119d257600080fd5b50565b6000813590506119e4816119be565b92915050565b600060208284031215611a00576119ff6119aa565b5b6000611a0e848285016119d5565b91505092915050565b600073ffffffffffffffffffffffffffffffffffffffff82169050919050565b6000611a4282611a17565b9050919050565b611a5281611a37565b82525050565b611a61816119b4565b82525050565b60008115159050919050565b611a7c81611a67565b82525050565b600060a082019050611a976000830188611a49565b611aa46020830187611a49565b611ab16040830186611a58565b611abe6060830185611a58565b611acb6080830184611a73565b9695505050505050565b611ade81611a37565b8114611ae957600080fd5b50565b600081359050611afb81611ad5565b92915050565b600060208284031215611b1757611b166119aa565b5b6000611b2584828501611aec565b91505092915050565b7f4e487b7100000000000000000000000000000000000000000000000000000000600052602160045260246000fd5b60048110611b6e57611b6d611b2e565b5b50565b6000819050611b7f82611b5d565b919050565b6000611b8f82611b71565b9050919050565b611b9f81611b84565b82525050565b6000608082019050611bba6000830187611a73565b611bc76020830186611a58565b611bd46040830185611b96565b611be16060830184611a58565b95945050505050565b6000602082019050611bff6000830184611a58565b92915050565b600080fd5b600080fd5b6000601f19601f8301169050919050565b7f4e487b7100000000000000000000000000000000000000000000000000000000600052604160045260246000fd5b611c5882611c0f565b810181811067ffffffffffffffff82111715611c7757611c76611c20565b5b80604052505050565b6000611c8a6119a0565b9050611c968282611c4f565b919050565b600067ffffffffffffffff821115611cb657611cb5611c20565b5b611cbf82611c0f565b9050602081019050919050565b82818337600083830152505050565b6000611cee611ce984611c9b565b611c80565b905082815260208101848484011115611d0a57611d09611c0a565b5b611d15848285611ccc565b509392505050565b600082601f830112611d3257611d31611c05565b5b8135611d42848260208601611cdb565b91505092915050565b60008060408385031215611d6257611d616119aa565b5b600083013567ffffffffffffffff811115611d8057611d7f6119af565b5b611d8c85828601611d1d565b925050602083013567ffffffffffffffff811115611dad57611dac6119af565b5b611db985828601611d1d565b9150509250929050565b600081519050919050565b600082825260208201905092915050565b60005b83811015611dfd578082015181840152602081019050611de2565b60008484015250505050565b6000611e1482611dc3565b611e1e8185611dce565b9350611e2e818560208601611ddf565b611e3781611c0f565b840191505092915050565b600060a082019050611e576000830188611a49565b8181036020830152611e698187611e09565b9050611e786040830186611a58565b611e856060830185611a73565b8181036080830152611e978184611e09565b90509695505050505050565b60008060408385031215611eba57611eb96119aa565b5b6000611ec8858286016119d5565b925050602083013567ffffffffffffffff811115611ee957611ee86119af565b5b611ef585828601611d1d565b9150509250929050565b60008060408385031215611f1657611f156119aa565b5b6000611f2485828601611aec565b9250506020611f35858286016119d5565b9150509250929050565b6000602082019050611f546000830184611a49565b92915050565b60006060820190508181036000830152611f748186611e09565b90508181036020830152611f888185611e09565b9050611f976040830184611a73565b949350505050565b60048110611fac57600080fd5b50565b600081359050611fbe81611f9f565b92915050565b60008060408385031215611fdb57611fda6119aa565b5b6000611fe9858286016119d5565b9250506020611ffa85828601611faf565b9150509250929050565b61200d81611a37565b82525050565b600082825260208201905092915050565b600061202f82611dc3565b6120398185612013565b9350612049818560208601611ddf565b61205281611c0f565b840191505092915050565b612066816119b4565b82525050565b61207581611a67565b82525050565b600060a0830160008301516120936000860182612004565b50602083015184820360208601526120ab8282612024565b91505060408301516120c0604086018261205d565b5060608301516120d3606086018261206c565b50608083015184820360808601526120eb8282612024565b9150508091505092915050565b60006020820190508181036000830152612112818461207b565b905092915050565b7f5573657220616c72656164792072656769737465726564000000000000000000600082015250565b6000612150601783611dce565b915061215b8261211a565b602082019050919050565b6000602082019050818103600083015261217f81612143565b9050919050565b7f4e487b7100000000000000000000000000000000000000000000000000000000600052602260045260246000fd5b600060028204905060018216806121cd57607f821691505b6020821081036121e0576121df612186565b5b50919050565b60008190508160005260206000209050919050565b60006020601f8301049050919050565b600082821b905092915050565b6000600883026122487fffffffffffffffffffffffffffffffffffffffffffffffffffffffffffffffff8261220b565b612252868361220b565b95508019841693508086168417925050509392505050565b6000819050919050565b600061228f61228a612285846119b4565b61226a565b6119b4565b9050919050565b6000819050919050565b6122a983612274565b6122bd6122b582612296565b848454612218565b825550505050565b600090565b6122d26122c5565b6122dd8184846122a0565b505050565b5b81811015612301576122f66000826122ca565b6001810190506122e3565b5050565b601f82111561234657612317816121e6565b612320846121fb565b8101602085101561232f578190505b61234361233b856121fb565b8301826122e2565b50505b505050565b600082821c905092915050565b60006123696000198460080261234b565b1980831691505092915050565b60006123828383612358565b9150826002028217905092915050565b61239b82611dc3565b67ffffffffffffffff8111156123b4576123b3611c20565b5b6123be82546121b5565b6123c9828285612305565b600060209050601f8311600181146123fc57600084156123ea578287015190505b6123f48582612376565b86555061245c565b601f19841661240a866121e6565b60005b828110156124325784890151825560018201915060208501945060208101905061240d565b8683101561244f578489015161244b601f891682612358565b8355505b6001600288020188555050505b505050505050565b60006060820190506124796000830186611a49565b818103602083015261248b8185611e09565b9050818103604083015261249f8184611e09565b9050949350505050565b7f4f6e6c79207265676973746572656420657870657274732063616e20616e737760008201527f6572000000000000000000000000000000000000000000000000000000000000602082015250565b6000612505602283611dce565b9150612510826124a9565b604082019050919050565b60006020820190508181036000830152612534816124f8565b9050919050565b7f436f6e73756c746174696f6e2068617320656e64656400000000000000000000600082015250565b6000612571601683611dce565b915061257c8261253b565b602082019050919050565b600060208201905081810360008301526125a081612564565b9050919050565b7f5175657374696f6e20616c726561647920616e73776572656400000000000000600082015250565b60006125dd601983611dce565b91506125e8826125a7565b602082019050919050565b6000602082019050818103600083015261260c816125d0565b9050919050565b60006060820190506126286000830186611a58565b6126356020830185611a49565b81810360408301526126478184611e09565b9050949350505050565b7f4f6e6c79206f776e65722063616e2063616c6c20746869732066756e6374696f60008201527f6e00000000000000000000000000000000000000000000000000000000000000602082015250565b60006126ad602183611dce565b91506126b882612651565b604082019050919050565b600060208201905081810360008301526126dc816126a0565b9050919050565b7f4665652070657263656e746167652063616e6e6f74206578636565642031303060008201527f2500000000000000000000000000000000000000000000000000000000000000602082015250565b600061273f602183611dce565b915061274a826126e3565b604082019050919050565b6000602082019050818103600083015261276e81612732565b9050919050565b7f4e487b7100000000000000000000000000000000000000000000000000000000600052601260045260246000fd5b7f4e487b7100000000000000000000000000000000000000000000000000000000600052601160045260246000fd5b60006127de826119b4565b91506127e9836119b4565b9250826127f9576127f8612775565b5b828204905092915050565b600061280f826119b4565b915061281a836119b4565b9250828202612828816119b4565b9150828204841483151761283f5761283e6127a4565b5b5092915050565b7f4f6e6c79207265676973746572656420657870657274732063616e207769746860008201527f6472617700000000000000000000000000000000000000000000000000000000602082015250565b60006128a2602483611dce565b91506128ad82612846565b604082019050919050565b600060208201905081810360008301526128d181612895565b9050919050565b7f4e6f206561726e696e677320746f207769746864726177000000000000000000600082015250565b600061290e601783611dce565b9150612919826128d8565b602082019050919050565b6000602082019050818103600083015261293d81612901565b9050919050565b60006040820190506129596000830185611a49565b6129666020830184611a58565b9392505050565b7f45787065727420616c7265616479207265676973746572656400000000000000600082015250565b60006129a3601983611dce565b91506129ae8261296d565b602082019050919050565b600060208201905081810360008301526129d281612996565b9050919050565b7f466565206d7573742062652067726561746572207468616e207a65726f000000600082015250565b6000612a0f601d83611dce565b9150612a1a826129d9565b602082019050919050565b60006020820190508181036000830152612a3e81612a02565b9050919050565b6000606082019050612a5a6000830186611a49565b612a676020830185611a58565b612a746040830184611b96565b949350505050565b7f4e6f7420796f757220636f6e73756c746174696f6e0000000000000000000000600082015250565b6000612ab2601583611dce565b9150612abd82612a7c565b602082019050919050565b60006020820190508181036000830152612ae181612aa5565b9050919050565b7f436f6e73756c746174696f6e2068617320657870697265640000000000000000600082015250565b6000612b1e601883611dce565b9150612b2982612ae8565b602082019050919050565b60006020820190508181036000830152612b4d81612b11565b9050919050565b6000606082019050612b696000830186611a58565b612b766020830185611a49565b612b836040830184611a58565b949350505050565b6000612b96826119b4565b91507fffffffffffffffffffffffffffffffffffffffffffffffffffffffffffffffff8203612bc857612bc76127a4565b5b600182019050919050565b7f55736572206d7573742062652072656769737465726564000000000000000000600082015250565b6000612c09601783611dce565b9150612c1482612bd3565b602082019050919050565b60006020820190508181036000830152612c3881612bfc565b9050919050565b7f457870657274206973206e6f7420726567697374657265640000000000000000600082015250565b6000612c75601883611dce565b9150612c8082612c3f565b602082019050919050565b60006020820190508181036000830152612ca481612c68565b9050919050565b7f496e636f7272656374207061796d656e7420616d6f756e740000000000000000600082015250565b6000612ce1601883611dce565b9150612cec82612cab565b602082019050919050565b60006020820190508181036000830152612d1081612cd4565b9050919050565b6000612d22826119b4565b9150612d2d836119b4565b9250828203905081811115612d4557612d446127a4565b5b92915050565b6000612d56826119b4565b9150612d61836119b4565b9250828201905080821115612d7957612d786127a4565b5b92915050565b600060a082019050612d946000830188611a58565b612da16020830187611a49565b612dae6040830186611a49565b612dbb6060830185611a58565b612dc86080830184611a58565b969550505050505056fea2646970667358221220f72a589c6da8edcc74eb3d30f092fab52974a871feb4d882612a0b36a7ab245664736f6c634300081b0033",
  "linkReferences": {},
  "deployedLinkReferences": {}
}