{
  "_format": "hh-sol-artifact-1",
  "contractName": "BlockchainHQ",
  "sourceName": "contracts/contract.sol",
  "abi": [
    {
      "inputs": [],
      "stateMutability": "nonpayable",
      "type": "constructor"
    },
    {
      "anonymous": false,
      "inputs": [
        {
          "indexed": false,
          "internalType": "uint256",
          "name": "consultationId",
          "type": "uint256"
        },
        {
          "indexed": false,
          "internalType": "address",
          "name": "user",
          "type": "address"
        },
        {
          "indexed": false,
          "internalType": "address",
          "name": "expert",
          "type": "address"
        },
        {
          "indexed": false,
          "internalType": "uint256",
          "name": "amountPaid",
          "type": "uint256"
        },
        {
          "indexed": false,
          "internalType": "uint256",
          "name": "endTime",
          "type": "uint256"
        }
      ],
      "name": "ConsultationStarted",
      "type": "event"
    },
    {
      "anonymous": false,
      "inputs": [
        {
          "indexed": false,
          "internalType": "address",
          "name": "expert",
          "type": "address"
        },
        {
          "indexed": false,
          "internalType": "uint256",
          "name": "fee",
          "type": "uint256"
        },
        {
          "indexed": false,
          "internalType": "enum BlockchainHQ.FeeType",
          "name": "feeType",
          "type": "uint8"
        }
      ],
      "name": "ExpertRegistered",
      "type": "event"
    },
    {
      "anonymous": false,
      "inputs": [
        {
          "indexed": false,
          "internalType": "uint256",
          "name": "questionId",
          "type": "uint256"
        },
        {
          "indexed": false,
          "internalType": "address",
          "name": "expert",
          "type": "address"
        },
        {
          "indexed": false,
          "internalType": "string",
          "name": "answer",
          "type": "string"
        }
      ],
      "name": "QuestionAnswered",
      "type": "event"
    },
    {
      "anonymous": false,
      "inputs": [
        {
          "indexed": false,
          "internalType": "uint256",
          "name": "questionId",
          "type": "uint256"
        },
        {
          "indexed": false,
          "internalType": "address",
          "name": "asker",
          "type": "address"
        },
        {
          "indexed": false,
          "internalType": "uint256",
          "name": "consultationId",
          "type": "uint256"
        }
      ],
      "name": "QuestionAsked",
      "type": "event"
    },
    {
      "anonymous": false,
      "inputs": [
        {
          "indexed": false,
          "internalType": "address",
          "name": "user",
          "type": "address"
        },
        {
          "indexed": false,
          "internalType": "string",
          "name": "name",
          "type": "string"
        },
        {
          "indexed": false,
          "internalType": "string",
          "name": "userAddress",
          "type": "string"
        }
      ],
      "name": "UserRegistered",
      "type": "event"
    },
    {
      "anonymous": false,
      "inputs": [
        {
          "indexed": false,
          "internalType": "address",
          "name": "expert",
          "type": "address"
        },
        {
          "indexed": false,
          "internalType": "uint256",
          "name": "amount",
          "type": "uint256"
        }
      ],
      "name": "Withdrawal",
      "type": "event"
    },
    {
      "inputs": [
        {
          "internalType": "uint256",
          "name": "questionId",
          "type": "uint256"
        },
        {
          "internalType": "string",
          "name": "answerText",
          "type": "string"
        }
      ],
      "name": "answerQuestion",
      "outputs": [],
      "stateMutability": "nonpayable",
      "type": "function"
    },
    {
      "inputs": [
        {
          "internalType": "uint256",
          "name": "consultationId",
          "type": "uint256"
        },
        {
          "internalType": "string",
          "name": "questionText",
          "type": "string"
        }
      ],
      "name": "askQuestion",
      "outputs": [],
      "stateMutability": "nonpayable",
      "type": "function"
    },
    {
      "inputs": [
        {
          "internalType": "address",
          "name": "expert",
          "type": "address"
        },
        {
          "internalType": "uint256",
          "name": "duration",
          "type": "uint256"
        }
      ],
      "name": "calculateFee",
      "outputs": [
        {
          "internalType": "uint256",
          "name": "",
          "type": "uint256"
        }
      ],
      "stateMutability": "view",
      "type": "function"
    },
    {
      "inputs": [],
      "name": "consultationCount",
      "outputs": [
        {
          "internalType": "uint256",
          "name": "",
          "type": "uint256"
        }
      ],
      "stateMutability": "view",
      "type": "function"
    },
    {
      "inputs": [
        {
          "internalType": "uint256",
          "name": "",
          "type": "uint256"
        }
      ],
      "name": "consultations",
      "outputs": [
        {
          "internalType": "address",
          "name": "user",
          "type": "address"
        },
        {
          "internalType": "address",
          "name": "expert",
          "type": "address"
        },
        {
          "internalType": "uint256",
          "name": "startTime",
          "type": "uint256"
        },
        {
          "internalType": "uint256",
          "name": "endTime",
          "type": "uint256"
        },
        {
          "internalType": "bool",
          "name": "isActive",
          "type": "bool"
        }
      ],
      "stateMutability": "view",
      "type": "function"
    },
    {
      "inputs": [
        {
          "internalType": "address",
          "name": "",
          "type": "address"
        }
      ],
      "name": "experts",
      "outputs": [
        {
          "internalType": "bool",
          "name": "isRegistered",
          "type": "bool"
        },
        {
          "internalType": "uint256",
          "name": "fee",
          "type": "uint256"
        },
        {
          "internalType": "enum BlockchainHQ.FeeType",
          "name": "feeType",
          "type": "uint8"
        },
        {
          "internalType": "uint256",
          "name": "balance",
          "type": "uint256"
        }
      ],
      "stateMutability": "view",
      "type": "function"
    },
    {
      "inputs": [
        {
          "internalType": "uint256",
          "name": "questionId",
          "type": "uint256"
        }
      ],
      "name": "getQuestion",
      "outputs": [
        {
          "components": [
            {
              "internalType": "address",
              "name": "asker",
              "type": "address"
            },
            {
              "internalType": "string",
              "name": "questionText",
              "type": "string"
            },
            {
              "internalType": "uint256",
              "name": "consultationId",
              "type": "uint256"
            },
            {
              "internalType": "bool",
              "name": "answered",
              "type": "bool"
            },
            {
              "internalType": "string",
              "name": "answerText",
              "type": "string"
            }
          ],
          "internalType": "struct BlockchainHQ.Question",
          "name": "",
          "type": "tuple"
        }
      ],
      "stateMutability": "view",
      "type": "function"
    },
    {
      "inputs": [],
      "name": "owner",
      "outputs": [
        {
          "internalType": "address",
          "name": "",
          "type": "address"
        }
      ],
      "stateMutability": "view",
      "type": "function"
    },
    {
      "inputs": [],
      "name": "platformFeePercentage",
      "outputs": [
        {
          "internalType": "uint256",
          "name": "",
          "type": "uint256"
        }
      ],
      "stateMutability": "view",
      "type": "function"
    },
    {
      "inputs": [],
      "name": "questionCount",
      "outputs": [
        {
          "internalType": "uint256",
          "name": "",
          "type": "uint256"
        }
      ],
      "stateMutability": "view",
      "type": "function"
    },
    {
      "inputs": [
        {
          "internalType": "uint256",
          "name": "",
          "type": "uint256"
        }
      ],
      "name": "questions",
      "outputs": [
        {
          "internalType": "address",
          "name": "asker",
          "type": "address"
        },
        {
          "internalType": "string",
          "name": "questionText",
          "type": "string"
        },
        {
          "internalType": "uint256",
          "name": "consultationId",
          "type": "uint256"
        },
        {
          "internalType": "bool",
          "name": "answered",
          "type": "bool"
        },
        {
          "internalType": "string",
          "name": "answerText",
          "type": "string"
        }
      ],
      "stateMutability": "view",
      "type": "function"
    },
    {
      "inputs": [
        {
          "internalType": "uint256",
          "name": "fee",
          "type": "uint256"
        },
        {
          "internalType": "enum BlockchainHQ.FeeType",
          "name": "feeType",
          "type": "uint8"
        }
      ],
      "name": "registerExpert",
      "outputs": [],
      "stateMutability": "nonpayable",
      "type": "function"
    },
    {
      "inputs": [
        {
          "internalType": "string",
          "name": "name",
          "type": "string"
        },
        {
          "internalType": "string",
          "name": "userAddress",
          "type": "string"
        }
      ],
      "name": "registerUser",
      "outputs": [],
      "stateMutability": "nonpayable",
      "type": "function"
    },
    {
      "inputs": [
        {
          "internalType": "uint256",
          "name": "newFeePercentage",
          "type": "uint256"
        }
      ],
      "name": "setPlatformFeePercentage",
      "outputs": [],
      "stateMutability": "nonpayable",
      "type": "function"
    },
    {
      "inputs": [
        {
          "internalType": "address",
          "name": "expert",
          "type": "address"
        },
        {
          "internalType": "uint256",
          "name": "duration",
          "type": "uint256"
        }
      ],
      "name": "startConsultation",
      "outputs": [],
      "stateMutability": "payable",
      "type": "function"
    },
    {
      "inputs": [
        {
          "internalType": "address",
          "name": "",
          "type": "address"
        }
      ],
      "name": "users",
      "outputs": [
        {
          "internalType": "string",
          "name": "name",
          "type": "string"
        },
        {
          "internalType": "string",
          "name": "userAddress",
          "type": "string"
        },
        {
          "internalType": "bool",
          "name": "isRegistered",
          "type": "bool"
        }
      ],
      "stateMutability": "view",
      "type": "function"
    },
    {
      "inputs": [],
      "name": "withdrawEarnings",
      "outputs": [],
      "stateMutability": "nonpayable",
      "type": "function"
    }
  ],
  "bytecode": "0x60806040526002600155348015601457600080fd5b50336000806101000a81548173ffffffffffffffffffffffffffffffffffffffff021916908373ffffffffffffffffffffffffffffffffffffffff160217905550612f2c806100646000396000f3fe6080604052600436106100fe5760003560e01c80638da5cb5b11610095578063c0f07fde11610064578063c0f07fde14610352578063cdd78cfc1461037d578063d24a3767146103a8578063db88176f146103d1578063f7dd55a61461040e576100fe565b80638da5cb5b146102a8578063a87430ba146102d3578063b73c6ce914610312578063b7c5e4ed14610329576100fe565b806331b1b978116100d157806331b1b978146101d8578063447e52a0146102195780638333903e146102425780638b28ab1e1461026b576100fe565b8063097b39ac1461010357806312572f5a146101445780631468aa2c146101845780631d2e4afd146101af575b600080fd5b34801561010f57600080fd5b5061012a60048036038101906101259190611a7c565b61042a565b60405161013b959493929190611b14565b60405180910390f35b34801561015057600080fd5b5061016b60048036038101906101669190611b93565b6104ad565b60405161017b9493929190611c37565b60405180910390f35b34801561019057600080fd5b506101996104f7565b6040516101a69190611c7c565b60405180910390f35b3480156101bb57600080fd5b506101d660048036038101906101d19190611ddd565b6104fd565b005b3480156101e457600080fd5b506101ff60048036038101906101fa9190611a7c565b610678565b604051610210959493929190611ed4565b60405180910390f35b34801561022557600080fd5b50610240600480360381019061023b9190611f35565b6107eb565b005b34801561024e57600080fd5b5061026960048036038101906102649190611a7c565b610a47565b005b34801561027757600080fd5b50610292600480360381019061028d9190611f91565b610b23565b60405161029f9190611c7c565b60405180910390f35b3480156102b457600080fd5b506102bd610cfc565b6040516102ca9190611fd1565b60405180910390f35b3480156102df57600080fd5b506102fa60048036038101906102f59190611b93565b610d20565b60405161030993929190611fec565b60405180910390f35b34801561031e57600080fd5b50610327610e67565b005b34801561033557600080fd5b50610350600480360381019061034b9190612056565b610fd9565b005b34801561035e57600080fd5b506103676111c8565b6040516103749190611c7c565b60405180910390f35b34801561038957600080fd5b506103926111ce565b60405161039f9190611c7c565b60405180910390f35b3480156103b457600080fd5b506103cf60048036038101906103ca9190611f35565b6111d4565b005b3480156103dd57600080fd5b506103f860048036038101906103f39190611a7c565b611422565b604051610405919061218a565b60405180910390f35b61042860048036038101906104239190611f91565b6115ee565b005b60056020528060005260406000206000915090508060000160009054906101000a900473ffffffffffffffffffffffffffffffffffffffff16908060010160009054906101000a900473ffffffffffffffffffffffffffffffffffffffff16908060020154908060030154908060040160009054906101000a900460ff16905085565b60036020528060005260406000206000915090508060000160009054906101000a900460ff16908060010154908060020160009054906101000a900460ff16908060030154905084565b60065481565b600260003373ffffffffffffffffffffffffffffffffffffffff1673ffffffffffffffffffffffffffffffffffffffff16815260200190815260200160002060020160009054906101000a900460ff161561058d576040517f08c379a0000000000000000000000000000000000000000000000000000000008152600401610584906121f8565b60405180910390fd5b604051806060016040528083815260200182815260200160011515815250600260003373ffffffffffffffffffffffffffffffffffffffff1673ffffffffffffffffffffffffffffffffffffffff16815260200190815260200160002060008201518160000190816105ff9190612424565b5060208201518160010190816106159190612424565b5060408201518160020160006101000a81548160ff0219169083151502179055509050507f92822564bab8864c3a47b34e8d23fbce5c46234eb5da261f94087b995ac0f33b33838360405161066c939291906124f6565b60405180910390a15050565b60046020528060005260406000206000915090508060000160009054906101000a900473ffffffffffffffffffffffffffffffffffffffff16908060010180546106c190612247565b80601f01602080910402602001604051908101604052809291908181526020018280546106ed90612247565b801561073a5780601f1061070f5761010080835404028352916020019161073a565b820191906000526020600020905b81548152906001019060200180831161071d57829003601f168201915b5050505050908060020154908060030160009054906101000a900460ff169080600401805461076890612247565b80601f016020809104026020016040519081016040528092919081815260200182805461079490612247565b80156107e15780601f106107b6576101008083540402835291602001916107e1565b820191906000526020600020905b8154815290600101906020018083116107c457829003601f168201915b5050505050905085565b6000600460008481526020019081526020016000209050600060056000836002015481526020019081526020016000209050600360003373ffffffffffffffffffffffffffffffffffffffff1673ffffffffffffffffffffffffffffffffffffffff16815260200190815260200160002060000160009054906101000a900460ff166108ac576040517f08c379a00000000000000000000000000000000000000000000000000000000081526004016108a3906125ad565b60405180910390fd5b3373ffffffffffffffffffffffffffffffffffffffff168160010160009054906101000a900473ffffffffffffffffffffffffffffffffffffffff1673ffffffffffffffffffffffffffffffffffffffff161461093e576040517f08c379a00000000000000000000000000000000000000000000000000000000081526004016109359061263f565b60405180910390fd5b8060030154421115610985576040517f08c379a000000000000000000000000000000000000000000000000000000000815260040161097c906126ab565b60405180910390fd5b8160030160009054906101000a900460ff16156109d7576040517f08c379a00000000000000000000000000000000000000000000000000000000081526004016109ce90612717565b60405180910390fd5b60018260030160006101000a81548160ff02191690831515021790555082826004019081610a059190612424565b507f7fdf1d7cd44bfbd332429c81d0a5261ffd2b9f35505a29b77d93099edd2933dc843385604051610a3993929190612737565b60405180910390a150505050565b60008054906101000a900473ffffffffffffffffffffffffffffffffffffffff1673ffffffffffffffffffffffffffffffffffffffff163373ffffffffffffffffffffffffffffffffffffffff1614610ad5576040517f08c379a0000000000000000000000000000000000000000000000000000000008152600401610acc906127e7565b60405180910390fd5b6064811115610b19576040517f08c379a0000000000000000000000000000000000000000000000000000000008152600401610b1090612879565b60405180910390fd5b8060018190555050565b600080600360008573ffffffffffffffffffffffffffffffffffffffff1673ffffffffffffffffffffffffffffffffffffffff168152602001908152602001600020905060006003811115610b7b57610b7a611bc0565b5b8160020160009054906101000a900460ff166003811115610b9f57610b9e611bc0565b5b03610bc957806001015461070884610bb791906128f7565b610bc19190612928565b915050610cf6565b60016003811115610bdd57610bdc611bc0565b5b8160020160009054906101000a900460ff166003811115610c0157610c00611bc0565b5b03610c2b578060010154610e1084610c1991906128f7565b610c239190612928565b915050610cf6565b60026003811115610c3f57610c3e611bc0565b5b8160020160009054906101000a900460ff166003811115610c6357610c62611bc0565b5b03610c8e5780600101546201518084610c7c91906128f7565b610c869190612928565b915050610cf6565b600380811115610ca157610ca0611bc0565b5b8160020160009054906101000a900460ff166003811115610cc557610cc4611bc0565b5b03610cf057806001015462093a8084610cde91906128f7565b610ce89190612928565b915050610cf6565b60009150505b92915050565b60008054906101000a900473ffffffffffffffffffffffffffffffffffffffff1681565b6002602052806000526040600020600091509050806000018054610d4390612247565b80601f0160208091040260200160405190810160405280929190818152602001828054610d6f90612247565b8015610dbc5780601f10610d9157610100808354040283529160200191610dbc565b820191906000526020600020905b815481529060010190602001808311610d9f57829003601f168201915b505050505090806001018054610dd190612247565b80601f0160208091040260200160405190810160405280929190818152602001828054610dfd90612247565b8015610e4a5780601f10610e1f57610100808354040283529160200191610e4a565b820191906000526020600020905b815481529060010190602001808311610e2d57829003601f168201915b5050505050908060020160009054906101000a900460ff16905083565b6000600360003373ffffffffffffffffffffffffffffffffffffffff1673ffffffffffffffffffffffffffffffffffffffff16815260200190815260200160002090508060000160009054906101000a900460ff16610efb576040517f08c379a0000000000000000000000000000000000000000000000000000000008152600401610ef2906129dc565b60405180910390fd5b6000816003015411610f42576040517f08c379a0000000000000000000000000000000000000000000000000000000008152600401610f3990612a48565b60405180910390fd5b600081600301549050600082600301819055503373ffffffffffffffffffffffffffffffffffffffff166108fc829081150290604051600060405180830381858888f19350505050158015610f9b573d6000803e3d6000fd5b507f7fcf532c15f0a6db0bd6d0e038bea71d30d808c7d98cb3bf7268a95bf5081b653382604051610fcd929190612a68565b60405180910390a15050565b600360003373ffffffffffffffffffffffffffffffffffffffff1673ffffffffffffffffffffffffffffffffffffffff16815260200190815260200160002060000160009054906101000a900460ff1615611069576040517f08c379a000000000000000000000000000000000000000000000000000000000815260040161106090612add565b60405180910390fd5b600082116110ac576040517f08c379a00000000000000000000000000000000000000000000000000000000081526004016110a390612b49565b60405180910390fd5b60405180608001604052806001151581526020018381526020018260038111156110d9576110d8611bc0565b5b81526020016000815250600360003373ffffffffffffffffffffffffffffffffffffffff1673ffffffffffffffffffffffffffffffffffffffff16815260200190815260200160002060008201518160000160006101000a81548160ff0219169083151502179055506020820151816001015560408201518160020160006101000a81548160ff0219169083600381111561117757611176611bc0565b5b0217905550606082015181600301559050507faf92d49cc91437cc4ab34730c3d757db39f708eaeec01ded13efb5a85e97f1723383836040516111bc93929190612b69565b60405180910390a15050565b60075481565b60015481565b60006005600084815260200190815260200160002090503373ffffffffffffffffffffffffffffffffffffffff168160000160009054906101000a900473ffffffffffffffffffffffffffffffffffffffff1673ffffffffffffffffffffffffffffffffffffffff161461127d576040517f08c379a000000000000000000000000000000000000000000000000000000000815260040161127490612bec565b60405180910390fd5b80600301544211156112c4576040517f08c379a00000000000000000000000000000000000000000000000000000000081526004016112bb90612c58565b60405180910390fd5b6040518060a001604052803373ffffffffffffffffffffffffffffffffffffffff1681526020018381526020018481526020016000151581526020016040518060200160405280600081525081525060046000600654815260200190815260200160002060008201518160000160006101000a81548173ffffffffffffffffffffffffffffffffffffffff021916908373ffffffffffffffffffffffffffffffffffffffff16021790555060208201518160010190816113849190612424565b506040820151816002015560608201518160030160006101000a81548160ff02191690831515021790555060808201518160040190816113c49190612424565b509050507fcb60cf50965453b64ab85ef79bed8aaae405934181b0456036bb9eaf6dd58dd860065433856040516113fd93929190612c78565b60405180910390a16006600081548092919061141890612caf565b9190505550505050565b61142a6119eb565b600460008381526020019081526020016000206040518060a00160405290816000820160009054906101000a900473ffffffffffffffffffffffffffffffffffffffff1673ffffffffffffffffffffffffffffffffffffffff1673ffffffffffffffffffffffffffffffffffffffff1681526020016001820180546114ae90612247565b80601f01602080910402602001604051908101604052809291908181526020018280546114da90612247565b80156115275780601f106114fc57610100808354040283529160200191611527565b820191906000526020600020905b81548152906001019060200180831161150a57829003601f168201915b50505050508152602001600282015481526020016003820160009054906101000a900460ff1615151515815260200160048201805461156590612247565b80601f016020809104026020016040519081016040528092919081815260200182805461159190612247565b80156115de5780601f106115b3576101008083540402835291602001916115de565b820191906000526020600020905b8154815290600101906020018083116115c157829003601f168201915b5050505050815250509050919050565b600260003373ffffffffffffffffffffffffffffffffffffffff1673ffffffffffffffffffffffffffffffffffffffff16815260200190815260200160002060020160009054906101000a900460ff1661167d576040517f08c379a000000000000000000000000000000000000000000000000000000000815260040161167490612d43565b60405180910390fd5b600360008373ffffffffffffffffffffffffffffffffffffffff1673ffffffffffffffffffffffffffffffffffffffff16815260200190815260200160002060000160009054906101000a900460ff1661170c576040517f08c379a000000000000000000000000000000000000000000000000000000000815260040161170390612daf565b60405180910390fd5b60006117188383610b23565b905080341461175c576040517f08c379a000000000000000000000000000000000000000000000000000000000815260040161175390612e1b565b60405180910390fd5b600060646001543461176e9190612928565b61177891906128f7565b9050600081346117889190612e3b565b905080600360008773ffffffffffffffffffffffffffffffffffffffff1673ffffffffffffffffffffffffffffffffffffffff16815260200190815260200160002060030160008282546117dc9190612e6f565b92505081905550600084426117f19190612e6f565b90506040518060a001604052803373ffffffffffffffffffffffffffffffffffffffff1681526020018773ffffffffffffffffffffffffffffffffffffffff1681526020014281526020018281526020016001151581525060056000600754815260200190815260200160002060008201518160000160006101000a81548173ffffffffffffffffffffffffffffffffffffffff021916908373ffffffffffffffffffffffffffffffffffffffff16021790555060208201518160010160006101000a81548173ffffffffffffffffffffffffffffffffffffffff021916908373ffffffffffffffffffffffffffffffffffffffff160217905550604082015181600201556060820151816003015560808201518160040160006101000a81548160ff02191690831515021790555090505060008054906101000a900473ffffffffffffffffffffffffffffffffffffffff1673ffffffffffffffffffffffffffffffffffffffff166108fc849081150290604051600060405180830381858888f19350505050158015611989573d6000803e3d6000fd5b507fe753ff4fbc8db8a24fe1cbb9a9c8b443e4d4475faeb8b6772ad6b2e866cc6489600754338834856040516119c3959493929190612ea3565b60405180910390a1600760008154809291906119de90612caf565b9190505550505050505050565b6040518060a00160405280600073ffffffffffffffffffffffffffffffffffffffff1681526020016060815260200160008152602001600015158152602001606081525090565b6000604051905090565b600080fd5b600080fd5b6000819050919050565b611a5981611a46565b8114611a6457600080fd5b50565b600081359050611a7681611a50565b92915050565b600060208284031215611a9257611a91611a3c565b5b6000611aa084828501611a67565b91505092915050565b600073ffffffffffffffffffffffffffffffffffffffff82169050919050565b6000611ad482611aa9565b9050919050565b611ae481611ac9565b82525050565b611af381611a46565b82525050565b60008115159050919050565b611b0e81611af9565b82525050565b600060a082019050611b296000830188611adb565b611b366020830187611adb565b611b436040830186611aea565b611b506060830185611aea565b611b5d6080830184611b05565b9695505050505050565b611b7081611ac9565b8114611b7b57600080fd5b50565b600081359050611b8d81611b67565b92915050565b600060208284031215611ba957611ba8611a3c565b5b6000611bb784828501611b7e565b91505092915050565b7f4e487b7100000000000000000000000000000000000000000000000000000000600052602160045260246000fd5b60048110611c0057611bff611bc0565b5b50565b6000819050611c1182611bef565b919050565b6000611c2182611c03565b9050919050565b611c3181611c16565b82525050565b6000608082019050611c4c6000830187611b05565b611c596020830186611aea565b611c666040830185611c28565b611c736060830184611aea565b95945050505050565b6000602082019050611c916000830184611aea565b92915050565b600080fd5b600080fd5b6000601f19601f8301169050919050565b7f4e487b7100000000000000000000000000000000000000000000000000000000600052604160045260246000fd5b611cea82611ca1565b810181811067ffffffffffffffff82111715611d0957611d08611cb2565b5b80604052505050565b6000611d1c611a32565b9050611d288282611ce1565b919050565b600067ffffffffffffffff821115611d4857611d47611cb2565b5b611d5182611ca1565b9050602081019050919050565b82818337600083830152505050565b6000611d80611d7b84611d2d565b611d12565b905082815260208101848484011115611d9c57611d9b611c9c565b5b611da7848285611d5e565b509392505050565b600082601f830112611dc457611dc3611c97565b5b8135611dd4848260208601611d6d565b91505092915050565b60008060408385031215611df457611df3611a3c565b5b600083013567ffffffffffffffff811115611e1257611e11611a41565b5b611e1e85828601611daf565b925050602083013567ffffffffffffffff811115611e3f57611e3e611a41565b5b611e4b85828601611daf565b9150509250929050565b600081519050919050565b600082825260208201905092915050565b60005b83811015611e8f578082015181840152602081019050611e74565b60008484015250505050565b6000611ea682611e55565b611eb08185611e60565b9350611ec0818560208601611e71565b611ec981611ca1565b840191505092915050565b600060a082019050611ee96000830188611adb565b8181036020830152611efb8187611e9b565b9050611f0a6040830186611aea565b611f176060830185611b05565b8181036080830152611f298184611e9b565b90509695505050505050565b60008060408385031215611f4c57611f4b611a3c565b5b6000611f5a85828601611a67565b925050602083013567ffffffffffffffff811115611f7b57611f7a611a41565b5b611f8785828601611daf565b9150509250929050565b60008060408385031215611fa857611fa7611a3c565b5b6000611fb685828601611b7e565b9250506020611fc785828601611a67565b9150509250929050565b6000602082019050611fe66000830184611adb565b92915050565b600060608201905081810360008301526120068186611e9b565b9050818103602083015261201a8185611e9b565b90506120296040830184611b05565b949350505050565b6004811061203e57600080fd5b50565b60008135905061205081612031565b92915050565b6000806040838503121561206d5761206c611a3c565b5b600061207b85828601611a67565b925050602061208c85828601612041565b9150509250929050565b61209f81611ac9565b82525050565b600082825260208201905092915050565b60006120c182611e55565b6120cb81856120a5565b93506120db818560208601611e71565b6120e481611ca1565b840191505092915050565b6120f881611a46565b82525050565b61210781611af9565b82525050565b600060a0830160008301516121256000860182612096565b506020830151848203602086015261213d82826120b6565b915050604083015161215260408601826120ef565b50606083015161216560608601826120fe565b506080830151848203608086015261217d82826120b6565b9150508091505092915050565b600060208201905081810360008301526121a4818461210d565b905092915050565b7f5573657220616c72656164792072656769737465726564000000000000000000600082015250565b60006121e2601783611e60565b91506121ed826121ac565b602082019050919050565b60006020820190508181036000830152612211816121d5565b9050919050565b7f4e487b7100000000000000000000000000000000000000000000000000000000600052602260045260246000fd5b6000600282049050600182168061225f57607f821691505b60208210810361227257612271612218565b5b50919050565b60008190508160005260206000209050919050565b60006020601f8301049050919050565b600082821b905092915050565b6000600883026122da7fffffffffffffffffffffffffffffffffffffffffffffffffffffffffffffffff8261229d565b6122e4868361229d565b95508019841693508086168417925050509392505050565b6000819050919050565b600061232161231c61231784611a46565b6122fc565b611a46565b9050919050565b6000819050919050565b61233b83612306565b61234f61234782612328565b8484546122aa565b825550505050565b600090565b612364612357565b61236f818484612332565b505050565b5b818110156123935761238860008261235c565b600181019050612375565b5050565b601f8211156123d8576123a981612278565b6123b28461228d565b810160208510156123c1578190505b6123d56123cd8561228d565b830182612374565b50505b505050565b600082821c905092915050565b60006123fb600019846008026123dd565b1980831691505092915050565b600061241483836123ea565b9150826002028217905092915050565b61242d82611e55565b67ffffffffffffffff81111561244657612445611cb2565b5b6124508254612247565b61245b828285612397565b600060209050601f83116001811461248e576000841561247c578287015190505b6124868582612408565b8655506124ee565b601f19841661249c86612278565b60005b828110156124c45784890151825560018201915060208501945060208101905061249f565b868310156124e157848901516124dd601f8916826123ea565b8355505b6001600288020188555050505b505050505050565b600060608201905061250b6000830186611adb565b818103602083015261251d8185611e9b565b905081810360408301526125318184611e9b565b9050949350505050565b7f4f6e6c79207265676973746572656420657870657274732063616e20616e737760008201527f6572000000000000000000000000000000000000000000000000000000000000602082015250565b6000612597602283611e60565b91506125a28261253b565b604082019050919050565b600060208201905081810360008301526125c68161258a565b9050919050565b7f4f6e6c79207468652061737369676e6564206578706572742063616e20616e7360008201527f7765722074686973207175657374696f6e000000000000000000000000000000602082015250565b6000612629603183611e60565b9150612634826125cd565b604082019050919050565b600060208201905081810360008301526126588161261c565b9050919050565b7f436f6e73756c746174696f6e2068617320656e64656400000000000000000000600082015250565b6000612695601683611e60565b91506126a08261265f565b602082019050919050565b600060208201905081810360008301526126c481612688565b9050919050565b7f5175657374696f6e20616c726561647920616e73776572656400000000000000600082015250565b6000612701601983611e60565b915061270c826126cb565b602082019050919050565b60006020820190508181036000830152612730816126f4565b9050919050565b600060608201905061274c6000830186611aea565b6127596020830185611adb565b818103604083015261276b8184611e9b565b9050949350505050565b7f4f6e6c79206f776e65722063616e2063616c6c20746869732066756e6374696f60008201527f6e00000000000000000000000000000000000000000000000000000000000000602082015250565b60006127d1602183611e60565b91506127dc82612775565b604082019050919050565b60006020820190508181036000830152612800816127c4565b9050919050565b7f4665652070657263656e746167652063616e6e6f74206578636565642031303060008201527f2500000000000000000000000000000000000000000000000000000000000000602082015250565b6000612863602183611e60565b915061286e82612807565b604082019050919050565b6000602082019050818103600083015261289281612856565b9050919050565b7f4e487b7100000000000000000000000000000000000000000000000000000000600052601260045260246000fd5b7f4e487b7100000000000000000000000000000000000000000000000000000000600052601160045260246000fd5b600061290282611a46565b915061290d83611a46565b92508261291d5761291c612899565b5b828204905092915050565b600061293382611a46565b915061293e83611a46565b925082820261294c81611a46565b91508282048414831517612963576129626128c8565b5b5092915050565b7f4f6e6c79207265676973746572656420657870657274732063616e207769746860008201527f6472617700000000000000000000000000000000000000000000000000000000602082015250565b60006129c6602483611e60565b91506129d18261296a565b604082019050919050565b600060208201905081810360008301526129f5816129b9565b9050919050565b7f4e6f206561726e696e677320746f207769746864726177000000000000000000600082015250565b6000612a32601783611e60565b9150612a3d826129fc565b602082019050919050565b60006020820190508181036000830152612a6181612a25565b9050919050565b6000604082019050612a7d6000830185611adb565b612a8a6020830184611aea565b9392505050565b7f45787065727420616c7265616479207265676973746572656400000000000000600082015250565b6000612ac7601983611e60565b9150612ad282612a91565b602082019050919050565b60006020820190508181036000830152612af681612aba565b9050919050565b7f466565206d7573742062652067726561746572207468616e207a65726f000000600082015250565b6000612b33601d83611e60565b9150612b3e82612afd565b602082019050919050565b60006020820190508181036000830152612b6281612b26565b9050919050565b6000606082019050612b7e6000830186611adb565b612b8b6020830185611aea565b612b986040830184611c28565b949350505050565b7f4e6f7420796f757220636f6e73756c746174696f6e0000000000000000000000600082015250565b6000612bd6601583611e60565b9150612be182612ba0565b602082019050919050565b60006020820190508181036000830152612c0581612bc9565b9050919050565b7f436f6e73756c746174696f6e2068617320657870697265640000000000000000600082015250565b6000612c42601883611e60565b9150612c4d82612c0c565b602082019050919050565b60006020820190508181036000830152612c7181612c35565b9050919050565b6000606082019050612c8d6000830186611aea565b612c9a6020830185611adb565b612ca76040830184611aea565b949350505050565b6000612cba82611a46565b91507fffffffffffffffffffffffffffffffffffffffffffffffffffffffffffffffff8203612cec57612ceb6128c8565b5b600182019050919050565b7f55736572206d7573742062652072656769737465726564000000000000000000600082015250565b6000612d2d601783611e60565b9150612d3882612cf7565b602082019050919050565b60006020820190508181036000830152612d5c81612d20565b9050919050565b7f457870657274206973206e6f7420726567697374657265640000000000000000600082015250565b6000612d99601883611e60565b9150612da482612d63565b602082019050919050565b60006020820190508181036000830152612dc881612d8c565b9050919050565b7f496e636f7272656374207061796d656e7420616d6f756e740000000000000000600082015250565b6000612e05601883611e60565b9150612e1082612dcf565b602082019050919050565b60006020820190508181036000830152612e3481612df8565b9050919050565b6000612e4682611a46565b9150612e5183611a46565b9250828203905081811115612e6957612e686128c8565b5b92915050565b6000612e7a82611a46565b9150612e8583611a46565b9250828201905080821115612e9d57612e9c6128c8565b5b92915050565b600060a082019050612eb86000830188611aea565b612ec56020830187611adb565b612ed26040830186611adb565b612edf6060830185611aea565b612eec6080830184611aea565b969550505050505056fea2646970667358221220cde283f970a4584dcf7f71305b2b7b94faacd64b56a4230ff7217cce34961f7464736f6c634300081b0033",
  "linkReferences": {},
  "deployedLinkReferences": {}
}